S01300004441437573696E6750574D2E737265632F
S11300000C9434000C9451000C9451000C94510045
S11300100C9451000C9451000C9451000C94510018
S11300200C9451000C9451000C9451000C94510008
S11300300C9451000C9451000C9451000C945100F8
S11300400C9451000C9451000C9451000C945100E8
S11300500C9451000C9451000C9451000C945100D8
S11300600C9451000C94510011241FBECFEFD8E022
S1130070DEBFCDBF12E0A0E0B1E0ECEFF0E002C0E3
S113008005900D92A030B107D9F722E0A0E0B2E0CC
S113009001C01D92A430B207E1F70E9453000C94F2
S11300A07C000C9400008AB180668AB983E884BD20
S11300B081E085BD17BC109203021092020284E015
S11300C099E29093010280930002789420910002B7
S11300D0309101028091020290910302820F931FDA
S11300E09093030280930202892F9927FC01E05028
S10F00F0FF4F808187BDEACFF894FFCF5A
S11300FC808386898C8F9295989C9FA2A5A8ABAE81
S113010CB0B3B6B9BCBFC1C4C7C9CCCED1D3D5D892
S113011CDADCDEE0E2E4E6E8EAECEDEFF0F2F3F54B
S113012CF6F7F8F9FAFBFCFCFDFEFEFFFFFFFFFF00
S113013CFFFFFFFFFFFFFEFEFDFCFCFBFAF9F8F7E7
S113014CF6F5F3F2F0EFEDECEAE8E6E4E2E0DEDCFF
S113015CDAD8D5D3D1CECCC9C7C4C1BFBCB9B6B318
S113016CB0AEABA8A5A29F9C9895928F8C898683E0
S113017C7F7C797673706D6A6763605D5A575451EE
S113018C4F4C494643403E3B383633312E2C2A27BC
S113019C2523211F1D1B1917151312100F0D0C0AE3
S11301AC090807060504030302010100000000000E
S11301BC0000000000000101020303040506070807
S11301CC090A0C0D0F1012131517191B1D1F2123CF
S11301DC25272A2C2E313336383B3E404346494C96
S11301EC4F5154575A5D6063676A6D707376797CAE
S9030000FC
