:100000000C9439000C944B000C944B000C944B0056
:100010000C944B000C944B000C944B000C944B0034
:100020000C944B000C944B000C94AD000C944B00C2
:100030000C944B000C944B000C944B000C944B0014
:100040000C944B000C944B000C944B000C944B0004
:100050000C944B0005A84CCDB2D44EB93836A90249
:100060000C50B9918688083CA6AAAA2ABE000000B6
:10007000803F11241FBECFE5D8E0DEBFCDBF21E019
:10008000A0E6B0E001C01D92AC35B207E1F70E94D6
:1000900088000C9480030C9400008FEF8ABB87BB10
:1000A00084BB0895CF93DF93C0E0D0E0BE0180E031
:1000B00090E00E94CD0123EC35EF48EC50E40E9423
:1000C0005B0220E030E04AE753E40E942C010E94EA
:1000D000C80220E030E04EEF52E40E945B0220E0D4
:1000E00030E04EEF52E40E94C0000E949E01FE01EB
:1000F000EE59FF4F60832196CA3FD105B9F6DF91D3
:10010000CF91089589E083BF82E089BF12BE089530
:100110000E9452000E944D0081E38CBF0E94820029
:1001200078942AEF30E0809160008130E1F71092FE
:100130006000E0916100F0E0EE59FF4F80818BBBE1
:100140008091610090E00196B9010E94580380936C
:10015000610088B3809588BBE6CF1F920F920FB6DF
:100160000F9211248F9381E08093600085B3809576
:1001700085BB8F910F900FBE0F901F901895505810
:10018000BB27AA270E94D7000C9421020E941302C9
:1001900038F00E941A0220F039F49F3F19F426F437
:1001A0000C9410020EF4E095E7FB0C940A02E92F80
:1001B0000E94320258F3BA17620773078407950743
:1001C00020F079F4A6F50C9454020EF4E0950B2E71
:1001D000BA2FA02D0B01B90190010C01CA01A00199
:1001E0001124FF27591B99F0593F50F4503E68F1F4
:1001F0001A16F040A22F232F342F4427585FF3CF35
:10020000469537952795A795F0405395C9F77EF405
:100210001F16BA0B620B730B840BBAF09150A1F04E
:10022000FF0FBB1F661F771F881FC2F70EC0BA0FD4
:10023000621F731F841F48F4879577956795B7955C
:10024000F7959E3F08F0B0CF9395880F08F0992757
:10025000EE0F9795879508950E9440010C94210216
:100260000E941A0258F00E94130240F029F45F3FE6
:1002700029F00C940A0251110C9455020C941002AE
:100280000E94320268F39923B1F3552391F3951B31
:10029000550BBB27AA2762177307840738F09F5FA7
:1002A0005F4F220F331F441FAA1FA9F335D00E2E14
:1002B0003AF0E0E832D091505040E695001CCAF781
:1002C0002BD0FE2F29D0660F771F881FBB1F261744
:1002D00037074807AB07B0E809F0BB0B802DBF011B
:1002E000FF2793585F4F3AF09E3F510578F00C94EA
:1002F0000A020C9455025F3FE4F3983ED4F38695CE
:1003000077956795B795F7959F5FC9F7880F911D0A
:100310009695879597F90895E1E0660F771F881FF6
:10032000BB1F621773078407BA0720F0621B730BA9
:10033000840BBA0BEE1F88F7E09508950E943A02ED
:1003400088F09F5798F0B92F9927B751B0F0E1F096
:10035000660F771F881F991F1AF0BA95C9F714C046
:10036000B13091F00E945402B1E008950C9454020F
:10037000672F782F8827B85F39F0B93FCCF386957F
:1003800077956795B395D9F73EF4909580957095DC
:1003900061957F4F8F4F9F4F0895E89409C097FB59
:1003A0003EF490958095709561957F4F8F4F9F4F4C
:1003B0009923A9F0F92F96E9BB279395F695879590
:1003C00077956795B795F111F8CFFAF4BB0F11F453
:1003D00060FF1BC06F5F7F4F8F4F9F4F16C08823FA
:1003E00011F096E911C0772321F09EE8872F762F30
:1003F00005C0662371F096E8862F70E060E02AF071
:100400009A95660F771F881FDAF7880F969587955C
:1004100097F9089597F99F6780E870E060E0089584
:100420009FEF80EC089500240A941616170618060C
:100430000906089500240A941216130614060506E8
:100440000895092E0394000C11F4882352F0BB0F79
:1004500040F4BF2B11F460FF04C06F5F7F4F8F4FDC
:100460009F4F089557FD9058440F551F59F05F3F17
:1004700071F04795880F97FB991F61F09F3F79F0C6
:1004800087950895121613061406551FF2CF469548
:10049000F1DF08C0161617061806991FF1CF8695CA
:1004A0007105610508940895E894BB2766277727AE
:1004B000CB0197F908950E946E020C9421020E94CC
:1004C000130238F00E941A0220F0952311F00C94C8
:1004D0000A020C94100211240C9455020E9432025C
:1004E00070F3959FC1F3950F50E0551F629FF00187
:1004F000729FBB27F00DB11D639FAA27F00DB11DA0
:10050000AA1F649F6627B00DA11D661F829F222728
:10051000B00DA11D621F739FB00DA11D621F839FAF
:10052000A00D611D221F749F3327A00D611D231F85
:10053000849F600D211D822F762F6A2F11249F57D3
:1005400050409AF0F1F088234AF0EE0FFF1FBB1FD6
:10055000661F771F881F91505040A9F79E3F510595
:1005600080F00C940A020C9455025F3FE4F3983E2D
:10057000D4F3869577956795B795F795E7959F5F3F
:10058000C1F7FE2B880F911D9695879597F90895D1
:100590009F930E94D2020F9007FCEE5F0C94FB0227
:1005A0000C9410020E943A02D8F3E894E0E0BB27D2
:1005B0009F57F0F02AED3FE049EC06C0EE0FBB0F6D
:1005C000661F771F881F28F0B23A620773078407F7
:1005D00028F0B25A620B730B840BE3959A9572F76D
:1005E000803830F49A95BB0F661F771F881FD2F7AB
:1005F00090480C941103EF93E0FF07C0A2EA2AEDA4
:100600003FE049EC5FEB0E94D7000E9421020F906F
:10061000039401FC9058E4E5F0E00C941D039F3F27
:1006200031F0915020F4879577956795B795880FAD
:10063000911D9695879597F908959F938F937F9332
:100640006F93FF93EF939B01AC010E945B02EF91CC
:10065000FF910E9431032F913F914F915F910C9434
:100660005B02DF93CF931F930F93FF92EF92DF9282
:100670007B018C01689406C0DA2EEF010E946E02A5
:10068000FE01E894A5912591359145915591A6F3E8
:10069000EF010E94D700FE019701A801DA9469F7E3
:1006A000DF90EF90FF900F911F91CF91DF91089510
:1006B00097FB072E16F4009407D077FD09D00E940F
:1006C0006C0307FC05D03EF4909581959F4F0895EB
:1006D000709561957F4F0895AA1BBB1B51E107C020
:1006E000AA1FBB1FA617B70710F0A61BB70B881FC2
:1006F000991F5A95A9F780959095BC01CD01089551
:04070000F894FFCF9B
:00000001FF
