S0120000466972737444726166742E7372656319
S11300000C9439000C944B000C944B000C944B0052
S11300100C944B000C944B000C944B000C944B0030
S11300200C944B000C944B000C944B000C944B0020
S11300300C944B000C944B000C944B000C944B0010
S11300400C944B000C944B000C944B000C944B0000
S11300500C944B0005A84CCDB2D44EB93836A90245
S11300600C50B9918688083CA6AAAA2ABE000000B2
S1130070803F11241FBECFE5D8E0DEBFCDBF21E015
S1130080A0E6B0E001C01D92A936B207E1F70E94D4
S113009050010C94FE030C94000015BAEFE9FFE044
S11300A03197F1F700C00000982F907F95BBEFE8DF
S11300B0F1E03197F1F700C00000AA9AEFE8F1E00F
S11300C03197F1F700C00000AA98EFE8F1E031970A
S11300D0F1F700C00000F0E18F9FC001112485BB3F
S11300E08FE891E00197F1F700C00000AA9AEFE8C9
S11300F0F1E03197F1F700C00000AA988FE891E091
S11301000197F1F700C00000089587EF84BB82E0F7
S11301100E944D0088E20E944D0086E00E944D003E
S11301208CE00E944D00089580916000803121F49C
S113013080EC0E944D000895811103C080E80E9464
S11301404D000895CF93C82F0E94940015BA8C2FA8
S1130150807F85BB8FE891E00197F1F700C0000034
S113016085B3856085BB8FE99FE00197F1F700C0F7
S11301700000AA988FE891E00197F1F700C0000011
S113018020E1C29FC001112485BB8FE891E0019753
S1130190F1F700C0000085B3856085BB8FE891E06E
S11301A00197F1F700C00000AA988091600090E0E8
S11301B001968F719078992324F40197806E9F6F34
S11301C0019680936000CF9108950F931F93CF936E
S11301D0FC018081882359F08F01C0E0CF5F0E9429
S11301E0A200F801EC0FF11D80818111F7CFCF91AE
S11301F01F910F910895CF93DF93CDB7DEB7649726
S11302000FB6F894DEBF0FBECDBF4AE0BE016F5FEC
S11302107F4F822F932F0E94C903CE0101960E9423
S1130220E50064960FB6F894DEBF0FBECDBFDF9134
S1130230CF9108958FEF8ABB87BB84BB0895CF937A
S1130240DF93C0E0D0E0BE0180E090E00E943E0277
S113025023EC35EF48EC50E40E94CC0220E030E07F
S113026040E85BE30E94CC020E94390320E030E0C6
S11302704EEF52E40E94CC0220E030E04EEF52E414
S11302800E94A3010E940F02FE01EB59FF4F6083FD
S11302902196C11581E0D807B1F6DF91CF91089579
S11302A00E9485000E941F010E941A0110926100A1
S11302B010926200109263001092640087E291E34E
S11302C0A0E0B0E08093650190936601A09367017C
S11302D0B093680127E231E340E050E060E070E071
S11302E080E090E00E94FB008091610090916200A8
S11302F0A0916300B09164008B2F9927AA27BB2794
S1130300FC01EB59FF4F80818BBB40916100509100
S11303106200609163007091640080916501909126
S11303206601A0916701B0916801840F951FA61F13
S1130330B71F8093610090936200A0936300B09311
S11303406400D2CF5058BB27AA270E94BA010C944C
S113035092020E94840238F00E948B0220F039F449
S11303609F3F19F426F40C9481020EF4E095E7FB08
S11303700C947B02E92F0E94A30258F3BA17620778
S113038073078407950720F079F4A6F50C94C50249
S11303900EF4E0950B2EBA2FA02D0B01B90190019C
S11303A00C01CA01A0011124FF27591B99F0593FE0
S11303B050F4503E68F11A16F040A22F232F342F28
S11303C04427585FF3CF469537952795A795F04076
S11303D05395C9F77EF41F16BA0B620B730B840B8B
S11303E0BAF09150A1F0FF0FBB1F661F771F881F43
S11303F0C2F70EC0BA0F621F731F841F48F487959B
S113040077956795B795F7959E3F08F0B0CF93958C
S1130410880F08F09927EE0F9795879508950E9405
S1130420AB0288F09F5798F0B92F9927B751B0F0D5
S1130430E1F0660F771F881F991F1AF0BA95C9F764
S113044014C0B13091F00E94C502B1E008950C943B
S1130450C502672F782F8827B85F39F0B93FCCF3EE
S1130460869577956795B395D9F73EF490958095E1
S1130470709561957F4F8F4F9F4F0895E89409C001
S113048097FB3EF490958095709561957F4F8F4FC3
S11304909F4F9923A9F0F92F96E9BB279395F695D9
S11304A0879577956795B795F111F8CFFAF4BB0F57
S11304B011F460FF1BC06F5F7F4F8F4F9F4F16C0BB
S11304C0882311F096E911C0772321F09EE8872F45
S11304D0762F05C0662371F096E8862F70E060E001
S11304E02AF09A95660F771F881FDAF7880F96957A
S11304F0879597F9089597F99F6780E870E060E021
S113050008959FEF80EC089500240A9416161706A8
S113051018060906089500240A94121613061406F0
S113052005060895092E0394000C11F4882352F053
S1130530BB0F40F4BF2B11F460FF04C06F5F7F4F0B
S11305408F4F9F4F089557FD9058440F551F59F0F2
S11305505F3F71F04795880F97FB991F61F09F3FAC
S113056079F087950895121613061406551FF2CFD5
S11305704695F1DF08C0161617061806991FF1CF25
S113058086957105610508940895E894BB2766274C
S11305907727CB0197F908950E94DF020C94920209
S11305A00E94840238F00E948B0220F0952311F0FF
S11305B00C947B020C94810211240C94C6020E94B8
S11305C0A30270F3959FC1F3950F50E0551F629FEE
S11305D0F001729FBB27F00DB11D639FAA27F00D98
S11305E0B11DAA1F649F6627B00DA11D661F829FBF
S11305F02227B00DA11D621F739FB00DA11D621FA4
S1130600839FA00D611D221F749F3327A00D611DC0
S1130610231F849F600D211D822F762F6A2F1124A2
S11306209F5750409AF0F1F088234AF0EE0FFF1FD5
S1130630BB1F661F771F881F91505040A9F79E3F2C
S1130640510580F00C947B020C94C6025F3FE4F3E6
S1130650983ED4F3869577956795B795F795E79582
S11306609F5FC1F7FE2B880F911D9695879597F98B
S113067008959F930E9443030F9007FCEE5F0C9430
S11306806C030C9481020E94AB02D8F3E894E0E07E
S1130690BB279F57F0F02AED3FE049EC06C0EE0F70
S11306A0BB0F661F771F881F28F0B23A62077307D3
S11306B0840728F0B25A620B730B840BE3959A9566
S11306C072F7803830F49A95BB0F661F771F881F26
S11306D0D2F790480C948203EF93E0FF07C0A2EA9C
S11306E02AED3FE049EC5FEB0E94BA010E949202BE
S11306F00F90039401FC9058E4E5F0E00C948E0311
S11307009F3F31F0915020F4879577956795B79581
S1130710880F911D9695879597F908959F938F93C8
S11307207F936F93FF93EF939B01AC010E94CC02E4
S1130730EF91FF910E94A2032F913F914F915F91FE
S11307400C94CC02DF93CF931F930F93FF92EF92FD
S1130750DF927B018C01689406C0DA2EEF010E94BF
S1130760DF02FE01E894A5912591359145915591BB
S1130770A6F3EF010E94BA01FE019701A801DA94E1
S113078069F7DF90EF90FF900F911F91CF91DF9168
S11307900895BB274A3031F4992322F4BDE29095A1
S11307A081959F4F0C94D503BB27FB015527AA279E
S11307B0880F991FAA1FA41710F0A41B83955051EA
S11307C0B9F7A05DAA3308F0A95DA193009779F762
S11307D0B111B1931192CB010C94EE03DC01FC0135
S11307E0672F71917723E1F7329704C07C916D9361
S11307F070836291AE17BF07C8F30895F894FFCFD2
S9030000FC
